:020000040000FA
:100000000C945D000C9485000C9485000C94850084
:100010000C9485000C9485000C9485000C9485004C
:100020000C9485000C9485000C9485000C9485003C
:100030000C9485000C9485000C9485000C9485002C
:100040000C94FE030C9485000C94CC030C94A60332
:100050000C9485000C9485000C9485000C9485000C
:100060000C9485000C94850000000008000201003B
:100070000003040700000000000000000000000072
:10008000250028002B0000000000240027002A0083
:10009000040404040404040402020202020203032E
:1000A0000303030301020408102040800102040836
:1000B0001020010204081020800511241FBECFEF7C
:1000C000D8E0DEBFCDBF11E0A0E0B1E0E6E2F0E1B4
:1000D00002C005900D92AC37B107D9F722E0ACE72A
:1000E000B1E001C01D92A232B207E1F710E0CDE508
:1000F000D0E004C02197FE010E940B08CC35D10747
:10010000C9F70E9448040C9411080C94000090E078
:10011000FC01EC55FF4F249180579F4FFC018491C7
:10012000882399F090E0880F991FFC01EA57FF4F50
:10013000A591B491FC01E458FF4F859194918FB73C
:10014000F894EC91E22BEC938FBF0895AF92BF929D
:10015000CF92DF92EF92FF920F931F93CF93DF9393
:100160006C017B018B01040F151FEB015E01AE18C2
:10017000BF08C017D10759F06991D601ED91FC91E4
:100180000190F081E02DC6010995892B79F7C50111
:10019000DF91CF911F910F91FF90EF90DF90CF9063
:1001A000BF90AF900895FC01538D448D252F30E012
:1001B000842F90E0821B930B541710F0CF96089574
:1001C00001970895FC01918D828D981761F0A28DA1
:1001D000AE0FBF2FB11D5D968C91928D9F5F9F7367
:1001E000928F90E008958FEF9FEF0895FC01918D1D
:1001F000828D981731F0828DE80FF11D858D90E08A
:1002000008958FEF9FEF0895FC01918D228D892F26
:1002100090E0805C9F4F821B91098F73992708950E
:1002200085E891E00E94040121E0892B09F420E097
:10023000822F089580E090E0892B29F00E94100120
:1002400081110C9400000895FC01A48DA80FB92F12
:10025000B11DA35ABF4F2C91848D90E001968F73EE
:100260009927848FA689B7892C93A089B1898C910D
:10027000837080648C93938D848D981306C002885C
:10028000F389E02D80818F7D80830895EF92FF9226
:100290000F931F93CF93DF93EC0181E0888F9B8DA9
:1002A0008C8D98131AC0E889F989808185FF15C063
:1002B0009FB7F894EE89FF896083E889F989808186
:1002C0008370806480839FBF81E090E0DF91CF9155
:1002D0001F910F91FF90EF900895F62E0B8D10E077
:1002E0000F5F1F4F0F731127E02E8C8D8E110CC0E6
:1002F0000FB607FCFACFE889F989808185FFF5CF31
:10030000CE010E942401F1CFEB8DEC0FFD2FF11DEA
:10031000E35AFF4FF0829FB7F8940B8FEA89FB896D
:1003200080818062CFCFCF93DF93EC01888D8823CB
:10033000B9F0AA89BB89E889F9898C9185FD03C048
:10034000808186FD0DC00FB607FCF7CF8C9185FF2D
:10035000F2CF808185FFEDCFCE010E942401E9CF4D
:10036000DF91CF91089590E0FC01E859FF4F24916F
:10037000FC01EC55FF4F3491FC01E057FF4FE49135
:10038000EE23C9F0222339F0233001F1A8F4213003
:1003900019F1223029F1F0E0EE0FFF1FE458FF4F72
:1003A000A591B4918FB7F894EC91611126C0309566
:1003B0003E233C938FBF08952730A9F02830C9F021
:1003C000243049F7809180008F7D03C080918000A8
:1003D0008F7780938000DFCF84B58F7784BDDBCFAC
:1003E00084B58F7DFBCF8091B0008F778093B00074
:1003F000D2CF8091B0008F7DF9CF3E2BDACF8E30F7
:1004000008F08E508770806480937C0080917A0021
:10041000806480937A0080917A0086FDFCCF809181
:1004200078009091790008953FB7F8948091810108
:1004300090918201A0918301B091840126B5A89B7F
:1004400005C02F3F19F00196A11DB11D3FBFBA2F66
:10045000A92F982F8827BC01CD01620F711D811D26
:10046000911D42E0660F771F881F991F4A95D1F7AB
:1004700008958F929F92AF92BF92CF92DF92EF92A8
:10048000FF924B015C010E9414026B017C010E94EF
:1004900014026C197D098E099F09683E734081051D
:1004A0009105A8F321E0821A9108A108B10888EE0D
:1004B000C80E83E0D81EE11CF11C81149104A10434
:1004C000B10429F7FF90EF90DF90CF90BF90AF90ED
:1004D0009F908F900895FC0101900020E9F73197DB
:1004E000AF01481B590BBC0185E891E00C94A600B4
:1004F0008F929F92AF92BF920F931F93CF93DF93F0
:10050000CDB7DEB7A1970FB6F894DEBF0FBECDBF53
:1005100019A2423008F44AE08E010F5D1F4F842E6D
:10052000912CB12CA12CA50194010E94E907E62F82
:10053000B901CA01EA30F4F4E05DD801EE938D010F
:10054000232B242B252B79F790E080E0109719F0CE
:10055000CD010E946B02A1960FB6F894DEBF0FBECC
:10056000CDBFDF91CF911F910F91BF90AF909F9022
:100570008F900895E95CE1CFCF93DF930E946B02E7
:10058000EC0182E191E00E946B028C0F9D1FDF91D4
:10059000CF9108954F925F926F927F928F929F9228
:1005A000AF92BF92CF92DF92EF92FF920F931F9381
:1005B000CF936B017C01742EAC019B010E94E40778
:1005C000882399F085E191E0CF911F910F91FF90E1
:1005D000EF90DF90CF90BF90AF909F908F907F90E3
:1005E0006F905F904F900C946B0246015701E89416
:1005F000B7F82FEF3FEF4FE75FE7C501B4010E9467
:10060000E40781110DC02FEF3FEF4FE75FE7C50112
:10061000B4010E941A0618161CF489E191E0D4CFA7
:100620002FEF3FEF4FE75FE4C701B6010E9472076B
:1006300018161CF48DE191E0C7CF2FEF3FEF4FE785
:100640005FECC701B6010E941A0687FDF3CF20E0D8
:1006500030E0A901C701B6010E941A0610E000E0CF
:1006600087FF0AC06DE285E891E00E9446018C0197
:10067000F7FAF094F7F8F094C0E060E070E080E002
:100680009FE37C1641F020E030E040E251E40E941C
:100690001F06CF5FF6CFA70196010E94AE052B0182
:1006A0003C010E9491064B015C014AE00E947802E5
:1006B0007C01E00EF11ECC23C1F1C501B4010E9402
:1006C000C0069B01AC01C301B2010E94AD054B0104
:1006D0005C016EE285E891E00E944601E80EF91E99
:1006E000C15018F120E030E040E251E4C501B4010E
:1006F0000E9477072B013C010E9491064B01B12C0F
:10070000A12C4AE0C501B4010E947802E80EF91E4E
:10071000C501B4010E94C0069B01AC01C301B20136
:100720000E94AD054B015C01DBCFC701CF911F914A
:100730000F91FF90EF90DF90CF90BF90AF909F9080
:100740008F907F906F905F904F9008951F920F92BF
:100750000FB60F9211242F933F934F935F936F9394
:100760007F938F939F93AF93BF93EF93FF9385E80E
:1007700091E00E942401FF91EF91BF91AF919F9171
:100780008F917F916F915F914F913F912F910F903A
:100790000FBE0F901F9018951F920F920FB60F92D9
:1007A00011242F938F939F93EF93FF93E0919501E3
:1007B000F09196018081E0919B01F0919C0182FD76
:1007C0001BC0908180919E018F5F8F7320919F014C
:1007D000821741F0E0919E01F0E0EB57FE4F958FBC
:1007E00080939E01FF91EF919F918F912F910F9098
:1007F0000FBE0F901F9018958081F4CF1F920F921B
:100800000FB60F9211242F933F938F939F93AF9323
:10081000BF9380917D0190917E01A0917F01B09165
:10082000800130917C0123E0230F2D3758F501968C
:10083000A11DB11D20937C0180937D0190937E01C9
:10084000A0937F01B09380018091810190918201FA
:10085000A0918301B09184010196A11DB11D8093E7
:10086000810190938201A0938301B0938401BF9191
:10087000AF919F918F913F912F910F900FBE0F904D
:100880001F90189526E8230F0296A11DB11DD2CF07
:10089000789484B5826084BD84B5816084BD85B55B
:1008A000826085BD85B5816085BD80916E00816067
:1008B00080936E001092810080918100826080930D
:1008C000810080918100816080938100809180000F
:1008D0008160809380008091B10084608093B1003A
:1008E0008091B00081608093B00080917A00846034
:1008F00080937A0080917A00826080937A00809160
:100900007A00816080937A0080917A008068809379
:100910007A001092C100E0919501F091960182E079
:100920008083E0919101F09192011082E091930116
:10093000F09194018FEC808310929D01E0919901D8
:10094000F0919A0186E08083E0919701F0919801FF
:10095000808180618083E0919701F091980180818E
:1009600088608083E0919701F09198018081806890
:100970008083E0919701F091980180818F7D808341
:1009800088E00E94870060E088E00E94B3018AE06E
:100990000E94870060E08AE00E94B30189E00E9423
:1009A000870060E089E00E94B30181E291E00E944B
:1009B000BC0264EF71E080E090E00E9439028DE3B8
:1009C00091E00E94BC0264EF71E080E090E00E9440
:1009D0003902C0E0D0E08EE00E94FF01BC01990F17
:1009E000880B990B0E94C20620E030E040EC51E4F5
:1009F0000E94AD054B015C0162E370E080E090E095
:100A00000E9439028FE00E94FF01BC01990F880B00
:100A1000990B0E94C2066B017C0181E10E94FF01DB
:100A2000BC01990F880B990B0E94C2062B013C0157
:100A300062E370E080E090E00E94390286E691E097
:100A40000E94BC0242E0C501B4010E94CA0268EEE5
:100A500073E080E090E00E9439028DE691E00E9410
:100A6000BC0242E0C701B6010E94CA0268EE73E010
:100A700080E090E00E94390281E791E00E94BC0290
:100A800042E0C301B2010E94CA0268EE73E080E056
:100A900090E00E94390220E030E040EA51E4C501D4
:100AA000B4010E941A0661E087FF60E088E00E94BE
:100AB000B30120E030E048E752E4C301B2010E94F4
:100AC0001A0661E087FF60E08AE00E94B30120E03F
:100AD00030E04CE852E4C701B6010E941A0661E01A
:100AE00087FF60E089E00E94B301209709F473CF8B
:100AF0000E941001882309F46ECF0E9400006BCF82
:100B0000E5E8F1E01382128288EE93E0A0E0B0E025
:100B100084839583A683B78384E091E09183808367
:100B200085EC90E09587848784EC90E097878687B2
:100B300080EC90E0918B808B81EC90E0938B828BAA
:100B400082EC90E0958B848B86EC90E0978B868B83
:100B5000118E128E138E148E08955058BB27AA271B
:100B60000E94C5050C9438070E942A0738F00E949D
:100B7000310720F039F49F3F19F426F40C9427072D
:100B80000EF4E095E7FB0C942107E92F0E9449073A
:100B900058F3BA17620773078407950720F079F4B2
:100BA000A6F50C946B070EF4E0950B2EBA2FA02D32
:100BB0000B01B90190010C01CA01A0011124FF270A
:100BC000591B99F0593F50F4503E68F11A16F04005
:100BD000A22F232F342F4427585FF3CF4695379504
:100BE0002795A795F0405395C9F77EF41F16BA0BC9
:100BF000620B730B840BBAF09150A1F0FF0FBB1F77
:100C0000661F771F881FC2F70EC0BA0F621F731FBF
:100C1000841F48F4879577956795B795F7959E3F1C
:100C200008F0B0CF9395880F08F09927EE0F9795AD
:100C3000879508950E94FD0608F481E008950E94BA
:100C400033060C9438070E94310758F00E942A0797
:100C500040F029F45F3F29F00C94210751110C94C6
:100C60006C070C9427070E94490768F39923B1F396
:100C7000552391F3951B550BBB27AA2762177307C2
:100C8000840738F09F5F5F4F220F331F441FAA1F56
:100C9000A9F335D00E2E3AF0E0E832D09150504012
:100CA000E695001CCAF72BD0FE2F29D0660F771FC0
:100CB000881FBB1F261737074807AB07B0E809F0A6
:100CC000BB0B802DBF01FF2793585F4F3AF09E3F2B
:100CD000510578F00C9421070C946C075F3FE4F306
:100CE000983ED4F3869577956795B795F7959F5F6E
:100CF000C9F7880F911D9695879597F90895E1E0BA
:100D0000660F771F881FBB1F621773078407BA0718
:100D100020F0621B730B840BBA0BEE1F88F7E09573
:100D200008950E94510788F09F5798F0B92F99278E
:100D3000B751B0F0E1F0660F771F881F991F1AF0C6
:100D4000BA95C9F714C0B13091F00E946B07B1E0B9
:100D500008950C946B07672F782F8827B85F39F0B8
:100D6000B93FCCF3869577956795B395D9F73EF45F
:100D700090958095709561957F4F8F4F9F4F089507
:100D8000E89409C097FB3EF4909580957095619525
:100D90007F4F8F4F9F4F9923A9F0F92F96E9BB27DB
:100DA0009395F695879577956795B795F111F8CF57
:100DB000FAF4BB0F11F460FF1BC06F5F7F4F8F4FC2
:100DC0009F4F16C0882311F096E911C0772321F0B8
:100DD0009EE8872F762F05C0662371F096E8862F50
:100DE00070E060E02AF09A95660F771F881FDAF7A7
:100DF000880F9695879597F90895990F0008550FD4
:100E0000AA0BE0E8FEEF16161706E807F907C0F090
:100E100012161306E407F50798F0621B730B840B98
:100E2000950B39F40A2661F0232B242B252B21F472
:100E300008950A2609F4A140A6958FEF811D811D12
:100E4000089597F99F6780E870E060E008959FEF4C
:100E500080EC089500240A94161617061806090651
:100E6000089500240A941216130614060506089520
:100E7000092E0394000C11F4882352F0BB0F40F4A8
:100E8000BF2B11F460FF04C06F5F7F4F8F4F9F4FE8
:100E9000089557FD9058440F551F59F05F3F71F06A
:100EA0004795880F97FB991F61F09F3F79F08795D1
:100EB0000895121613061406551FF2CF4695F1DF5A
:100EC00008C0161617061806991FF1CF86957105EA
:100ED000610508940895E894BB2766277727CB011E
:100EE00097F908950E94FD0608F48FEF08950E9477
:100EF0008A070C9438070E942A0738F00E943107AD
:100F000020F0952311F00C9421070C94270711244D
:100F10000C946C070E94490770F3959FC1F3950FDD
:100F200050E0551F629FF001729FBB27F00DB11D6D
:100F3000639FAA27F00DB11DAA1F649F6627B00DFD
:100F4000A11D661F829F2227B00DA11D621F739FE6
:100F5000B00DA11D621F839FA00D611D221F749FF4
:100F60003327A00D611D231F849F600D211D822F3B
:100F7000762F6A2F11249F5750409AF0F1F0882362
:100F80004AF0EE0FFF1FBB1F661F771F881F91508F
:100F90005040A9F79E3F510580F00C9421070C9416
:100FA0006C075F3FE4F3983ED4F386957795679599
:100FB000B795F795E7959F5FC1F7FE2B880F911DB9
:100FC0009695879597F908950E94FD06880B990BD1
:100FD0000895A1E21A2EAA1BBB1BFD010DC0AA1F7A
:100FE000BB1FEE1FFF1FA217B307E407F50720F092
:100FF000A21BB30BE40BF50B661F771F881F991F0D
:101000001A9469F760957095809590959B01AC0155
:10101000BD01CF010895EE0FFF1F0590F491E02D63
:101020000994F894FFCF000000004601A600D30009
:1010300093010401E200F6000D0A006E616E006982
:101040006E66006F76660043484154424F54204616
:101050004F52204348524F4E494320444953454143
:101060005345004D5554484159414D4D414C204543
:101070004E474720434F4C4C454745202D20444583
:1010800050542E204F4620564C53490074656D70C5
:101090003A200062703A006865617274726174652A
:0210A0003A0014
:107E0000112484B714BE81FFF0D085E080938100F7
:107E100082E08093C00088E18093C10086E0809377
:107E2000C20080E18093C4008EE0C9D0259A86E02C
:107E300020E33CEF91E0309385002093840096BBD3
:107E4000B09BFECF1D9AA8958150A9F7CC24DD24C4
:107E500088248394B5E0AB2EA1E19A2EF3E0BF2EE7
:107E6000A2D0813461F49FD0082FAFD0023811F036
:107E7000013811F484E001C083E08DD089C08234E0
:107E800011F484E103C0853419F485E0A6D080C0E4
:107E9000853579F488D0E82EFF2485D0082F10E0AE
:107EA000102F00270E291F29000F111F8ED06801E7
:107EB0006FC0863521F484E090D080E0DECF843638
:107EC00009F040C070D06FD0082F6DD080E0C81688
:107ED00080E7D80618F4F601B7BEE895C0E0D1E017
:107EE00062D089930C17E1F7F0E0CF16F0E7DF06D8
:107EF00018F0F601B7BEE89568D007B600FCFDCFD4
:107F0000A601A0E0B1E02C9130E011968C91119780
:107F100090E0982F8827822B932B1296FA010C0160
:107F200087BEE89511244E5F5F4FF1E0A038BF0790
:107F300051F7F601A7BEE89507B600FCFDCF97BE46
:107F4000E89526C08437B1F42ED02DD0F82E2BD052
:107F50003CD0F601EF2C8F010F5F1F4F84911BD097
:107F6000EA94F801C1F70894C11CD11CFA94CF0C13
:107F7000D11C0EC0853739F428D08EE10CD085E9AC
:107F80000AD08FE07ACF813511F488E018D01DD067
:107F900080E101D065CF982F8091C00085FFFCCF94
:107FA0009093C60008958091C00087FFFCCF809118
:107FB000C00084FD01C0A8958091C6000895E0E648
:107FC000F0E098E1908380830895EDDF803219F02E
:107FD00088E0F5DFFFCF84E1DECF1F93182FE3DFCA
:107FE0001150E9F7F2DF1F91089580E0E8DFEE27F6
:047FF000FF270994CA
:027FFE00040479
:00000001FF
